:100000000C94A7000C94C4000C94C4000C94C4007D
:100010000C94C4000C94C4000C94C4000C94C40050
:100020000C94C4000C94C4000C94C4000C94C40040
:100030000C94C4000C94C4000C94C4000C94C40030
:100040000C94C4000C94C4000C94C4000C94C40020
:100050000C94C40000407A10F35A00A0724E1809A4
:100060000010A5D4E80000E87648170000E40B541F
:10007000020000CA9A3B000000E1F50500008096EE
:100080009800000040420F000000A0860100000020
:10009000102700000000E8030000000064000000DA
:1000A00000000A00000000000100000000002C76A3
:1000B000D888DC674F0823DFC1DFAE59E1B1B796BE
:1000C000E5E3E453C63AE651997696E8E6C284261B
:1000D000EB898C9B62ED407C6FFCEFBC9C9F40F2F7
:1000E000BAA56FA5F490055A2AF75C936B6CF96773
:1000F0006DC11BFCE0E40D47FEF520E6B500D0ED38
:10010000902E0300943577050080841E080000209F
:100110004E0A000000C80C333333330F986E12833D
:100120001141EF8D2114893BE65516CFFEE6DB1811
:10013000D1844B381BF77C1D901DA4BBE4242032D6
:1001400084725E228100C9F124ECA1E53D271124CF
:100150001FBECFE5D8E0DEBFCDBF13E0A0E6B0E024
:10016000ECEFFEE102C005900D92AC34B107D9F777
:1001700023E0ACE4B3E001C01D92AE38B207E1F772
:100180000E94A2060C947C0F0C940000CF99FECF25
:10019000DF9A0000DB980000CF99FECF88E140E0B5
:1001A00050E0BA01DB9A0000440F551F661F771F0D
:1001B000DB980000CF9B04C04F5F5F4F6F4F7F4FB6
:1001C000815081F7689415F876956795579547950E
:1001D0001694D1F7DB9A0000DB980000CB01BA013E
:1001E00080580895803449F0803819F0803261F4E5
:1001F00008C081E08093520307C083E080935203DC
:1002000003C082E080935203DB980E94C6000895E9
:10021000D39AD798DF9A0E94F2000895CF92DF9286
:10022000EF92FF92CF93DF93D82F882371F0C0E035
:10023000C12CD12C76010E94C600C60ED71EE81E26
:10024000F91ECF5FCD13F7CF03C0C12CD12C76019F
:100250002D2F30E040E050E0C701B6010E948B0C2A
:10026000CA01B901DF91CF91FF90EF90DF90CF905D
:1002700008950E940E010E94530B60934E037093E9
:100280004F03809350039093510308956093530359
:10029000709354038093550390935603089560918F
:1002A0004E0370914F038091500390915103089534
:1002B000969885BB979A89EF90E00197F1F700C077
:1002C000000097988BE791E00197F1F700C00000DC
:1002D000089580E884BF84BF8FEF84BB81B3806CB6
:1002E00081BB85EA9EE00197F1F700C0000081E044
:1002F00090E00E94580188E390E00E9458018CE051
:1003000090E00E9458010895969A91E29A95F1F72B
:10031000000085BB979A89EF90E00197F1F700C044
:100320000000979886E791E00197F1F700C0000080
:100330000895CF93C82F20914C0330914D03203165
:10034000310589F480EC90E00E9458018C2F0E94C6
:10035000840180914C0390914D03019690934D033D
:1003600080934C034BC02032310589F480E990E042
:100370000E9458018C2F0E94840180914C0390911F
:100380004D03019690934D0380934C0337C0203367
:10039000310589F480ED90E00E9458018C2F0E9475
:1003A000840180914C0390914D03019690934D03ED
:1003B00080934C0323C020343105A9F410924D03DF
:1003C00010924C0381E090E00E9458018C2F0E9413
:1003D000840180914C0390914D03019690934D03BD
:1003E00080934C030BC00E94840180914C03909138
:1003F0004D03019690934D0380934C03CF91089544
:10040000CF93DF93EC018881882331F021960E94FD
:10041000990189918111FBCFDF91CF91089581E0FE
:1004200090E00E94580110924D0310924C030895E1
:10043000EF92FF920F931F93CF93DF93CDB7DEB769
:10044000EDB6FEB62DB73EB7261B370B0FB6F894A8
:100450003EBF0FBE2DBF0DB71EB70F5F1F4F4AE047
:10046000B8010E94E10CC8010E9400020FB6F89486
:10047000FEBE0FBEEDBEDF91CF911F910F91FF9099
:10048000EF9008950F931F93CF93DF9300D000D088
:100490001F92CDB7DEB78E010F5F1F4F22E045E000
:1004A0000E94C10CC8010E9400020F900F900F9093
:1004B0000F900F90DF91CF911F910F910895CF93DF
:1004C000DF93EC018881882361F021960E949901D5
:1004D00087EA91E60197F1F700C000008991811148
:1004E000F5CFDF91CF9108950E940F0280E890E050
:1004F0000E945F022FE38DE093E021508040904006
:10050000E1F700C000000E940F02089510BC89B9F5
:100510008AB188618AB980B5866880BD0895FC017A
:100520009081992369F031965D9BFECF9CB981EE55
:1005300094E00197F1F700C0000091919111F4CF80
:1005400008950F931F93CF93DF938C01EB0181EC00
:1005500090E00E948F022FE986E891E021508040D0
:100560009040E1F700C0000085EC90E00E948F020F
:100570002FE986E891E0215080409040E1F700C0EB
:10058000000080ED90E00E948F02C8010E948F025F
:1005900080E091E00E948F022FE986E891E02150EF
:1005A00080409040E1F700C00000CE010E948F0221
:1005B0008AE18CB92FE58AEE90E02150804090408E
:1005C000E1F700C00000DF91CF911F910F910895D6
:1005D00081EC90E00E948F022FE986E891E02150A3
:1005E00080409040E1F700C000008AED90E00E945A
:1005F0008F022FE986E891E0215080409040E1F79A
:1006000000C0000087EE90E00E948F022FE986E88C
:1006100091E0215080409040E1F700C0000083E06D
:1006200091E00E948F022FE78AE196E021508040FE
:100630009040E1F700C0000008954F925F926F92E2
:100640007F928F929F92AF92BF92CF92DF92EF9262
:10065000FF920F931F93CF93DF93CDB7DEB7289709
:100660000FB6F894DEBF0FBECDBF3C014B015A015F
:100670002901CE0101960E9400028DE191E00E94C5
:100680008F024AE0BE016F5F7F4FC3010E94E10C01
:10069000CE0101960E948F0287E591E00E948F02B1
:1006A0004AE0BE016F5F7F4FC4010E94E10CCE01A2
:1006B00001960E948F0280E691E00E948F024AE03C
:1006C000BE016F5F7F4FC5010E94E10CCE01019614
:1006D0000E948F0289E691E00E948F024AE0BE01EB
:1006E0006F5F7F4FC2010E94E10CCE0101960E9414
:1006F0008F0282E791E00E948F024AE0BE016F5FA5
:100700007F4FC8010E94E10CCE0101960E948F022A
:1007100089E791E00E948F028E010C5F1F4F22E05B
:1007200045E0C701B6010E94C10CC8010E948F02BA
:1007300080E091E00E948F022FE986E891E021504D
:1007400080409040E1F700C0000080E891E00E9406
:100750008F022FE986E891E0215080409040E1F738
:1007600000C0000085E991E00E948F0228960FB634
:10077000F894DEBF0FBECDBFDF91CF911F910F91D7
:10078000FF90EF90DF90CF90BF90AF909F908F90B1
:100790007F906F905F904F90089580EF87BB88B3F4
:1007A0008F6088BB80E090E0E0E8F0E027B320783D
:1007B00027BB47B3BC019F01082E02C03595279582
:1007C0000A94E2F7242B27BBB39B0FC0B29B07C050
:1007D000B19B08C0B09919C083E090E008C081E0E7
:1007E00090E005C082E090E002C080E090E0660FFB
:1007F000771F660F771F680F791FFB01EE0FFF1F32
:10080000E05AFF4F808191810895019684309105CF
:1008100069F68FEF90E008952FE788E391E021508B
:1008200080409040E1F700C000000E94CD038F3F60
:100830009105D9F30E94CD0308952FE788E391E055
:10084000215080409040E1F700C000000E94CD039D
:100850008F3F9105D9F30E94CD030197D1F10E94FA
:10086000CD030297C1F10E94CD030397B1F10E941D
:10087000CD030497A1F10E94CD03059791F10E9449
:10088000CD03069781F10E94CD03079771F10E9475
:10089000CD03089761F10E94CD03099751F10E94A1
:1008A000CD03892B41F10E94CD030A9731F10E94BB
:1008B000CD030B9721F10E94CD030C9711F10E94FB
:1008C000CD030D9701F10E94CD030E97F1F083E265
:1008D000089581E3089582E3089583E3089584E30E
:1008E000089585E3089586E3089587E3089588E3EE
:1008F000089589E3089580E3089581E4089582E4EA
:10090000089583E4089584E408958AE20895CF92D7
:10091000DF92EF92FF9280E80E94080160E070E0B1
:1009200080E89FE30E94460180E80E94F2008AE08E
:100930000E9439010E944F0122E931E040E05BE46E
:100940000E94390A20E030E040E253E40E94AB0A02
:100950006B017C0160936303709364038093650370
:100960009093660320E030E048EC52E40E94A60A2F
:10097000882334F4C701B6010E941D0BCB0102C0CD
:1009800084E690E0FF90EF90DF90CF900895BF92C3
:10099000CF92DF92EF92FF920F931F93CF93DF934B
:1009A0000AE010E080E090E0D1E0319A3E9A379A78
:1009B000D7B9369AE7EAF1E63197F1F700C00000BF
:1009C000C4B1B5B0BC01990F880B990B0E94550BAF
:1009D0006B017C018C2F90E09B29BC0180E090E0B2
:1009E0000E94530B20E030E040E251E40E94AB0A49
:1009F00020E030E048EC51E40E943A0A24EE38E36B
:100A00004EE05FE30E940A0C20E030E040E052E458
:100A10000E943A0A9B01AC01C701B6010E943A0A42
:100A20000E941D0BCB01EFE4F3EC3197F1F700C00E
:100A300000000150110909F0B8CF6AE070E00E948F
:100A4000770C072E000C880B990B0E94550BDF9139
:100A5000CF911F910F91FF90EF90DF90CF90BF90BB
:100A600008958EB585608EBD1DBC1CBC80E090E0F5
:100A70000895EF92FF920F931F93CF930E940F025E
:100A800086EA91E00E94000280EC90E00E9458010A
:100A900080E190E090934D0380934C0385EB91E0CF
:100AA0000E94000280E38093800301E813E00F2E90
:100AB000FAE8EF2EF3E0FF2EF02D0E941D04C82F60
:100AC0008FEB8C0F823038F40E941D04C82F8FEBFF
:100AD0008C0F8230C8F3C33411F40E9439058C2F77
:100AE0000E949901F801C1938F01EE15FF0529F7C6
:100AF000FFE32DE083E0F15020408040E1F700C0AB
:100B00000000CF911F910F91FF90EF900895929A5E
:100B1000089592980895939A089593980895969AAF
:100B200008954F925F926F927F92AF92BF92CF9251
:100B3000DF92EF92FF920F931F93CF93DF935C01AD
:100B40006B01EA01280139010E940F0287EB91E055
:100B50000E94000263E070E0C5010E9418028FE26B
:100B60000E94990162E070E0C6010E9418028EEBBB
:100B700091E00E94000280EC90E00E94580180E128
:100B800090E090934D0380934C0383EC91E00E949E
:100B9000000263E070E0CE010E94180280E990E05C
:100BA0000E94580180E290E090934D0380934C03A3
:100BB0008BEC91E00E940002C301B2010E9442024C
:100BC0008FED0E94990182ED91E00E94000280ED7C
:100BD00090E00E94580180E390E090934D03809351
:100BE0004C0384ED91E00E94000262E070E0C701D6
:100BF0000E941802DF91CF911F910F91FF90EF900B
:100C0000DF90CF90BF90AF907F906F905F904F90AC
:100C1000089580E80E94E90960E070E080E89FE3C1
:100C20000E94270A80E80E94D3098AE00E941A0ADB
:100C30000E94300A23EF34E840E05BE40E94390A66
:100C400020E030E04AE754E40E94AB0A08950F9395
:100C50001F93CF93DF9383B7856083BF8EB5856085
:100C60008EBD0E9487050E948B0580E990E00E945E
:100C7000580180E290E090934D0380934C0382EE04
:100C800091E00E9400021DBC1CBCC0E0D0E001E06D
:100C900010E012C087EA91E60197F1F700C000006A
:100CA0000E94090620E030E040EF52E40E94050C6B
:100CB000181614F4C02FD12F8CB59DB5883B9B40DE
:100CC00048F7CD2B01F50E940F0280EF91E00E94C2
:100CD00000020E948D050E94890510925E03109209
:100CE0005D031092620310926103109260031092F0
:100CF0005F038FE79AE126E0815090402040E1F7C2
:100D000000C000001AC00E940F028CE092E00E9416
:100D100000020E94090620E030E04EE353E40E9406
:100D2000A60A8823B4F30E948D051DBC1CBC0E943A
:100D300089051092600310925F03DF91CF911F919C
:100D40000F9108950E9469010E94740289E190E068
:100D50000E9486022FE38DE093E021508040904076
:100D6000E1F700C000000E9445090E94E8020E94CD
:100D700039054AE060E873E080915B0390915C0381
:100D80000E94E10C81B38C6481BB6894442444F8D4
:100D9000512C6894222425F8312C0E940F0287E2FE
:100DA00092E00E9400022FE38DE093E0215080400A
:100DB0009040E1F700C000000E94C7048B019C0135
:100DC00060937C0370937D0380937E0390937F03F5
:100DD000E12CF12C40E050E060E070E080E090E039
:100DE0000E949105C0915703D0915803CB30D10593
:100DF000F0F4C0907C03D0907D03E0907E03F090EF
:100E00007F032DEC3CEC43EC52E4C701B6010E9499
:100E1000A60A88230CF44AC02DEC3CEC48EC52E4C2
:100E2000C701B6010E94050C18160CF43FC0CE0194
:100E30000B97C797E0F4C0907C03D0907D03E090BF
:100E40007E03F0907F0323E333E345EC52E4C701D4
:100E5000B6010E94A60A88234CF123E333E349EC50
:100E600052E4C701B6010E94050C1816FCF0C2340A
:100E7000D10544F1C0907C03D0907D03E0907E03C7
:100E8000F0907F0323E333E342EC52E4C701B60161
:100E90000E94A60A882354F026E636E646EC52E481
:100EA000C701B6010E94050C18167CF40E948F053C
:100EB0006EE372E080E893E00E94A102AA24A3946A
:100EC000B12C05C0A12CB12C02C0A12CB12C2FE754
:100ED0008AE196E0215080409040E1F700C0000098
:100EE0000E940F0280E692E00E9400020E943105FB
:100EF00090935A038093590300917C0310917D03D2
:100F000020917E0330917F037C0140E050E060E05F
:100F100070E080E090E00E949105809157039091ED
:100F20005803823091054CF42091590330915A03B3
:100F30002E5131092B303105A0F58230910551F445
:100F40008091590390915A0349970B9750F5812C42
:100F5000912C38C09C01235031092330310548F4CD
:100F60002091590330915A03295131092630310516
:100F7000C0F49C01265031092730310548F42091F6
:100F8000590330915A03245131092630310548F470
:100F90000D979CF08091590390915A030C970997F3
:100FA00078F00E948F056DE772E080E893E00E9480
:100FB000A10288248394912C05C0812C912C02C01D
:100FC000812C912C2FE78AE196E0215080409040BF
:100FD000E1F700C000000E940F0280EA92E00E9448
:100FE00000020E94870490936B0380936A030E941F
:100FF0000F0289EB92E00E94000263E070E08091B2
:101000006A0390916B030E94180285E20E94990185
:1010100080916A0390916B030A9744F40E948F05B4
:1010200066EC72E080E893E00E94A1022FE78AE17B
:1010300096E0215080409040E1F700C000000E94FF
:101040000F028CE092E00E9400020E942706E090CE
:101050005903F0905A0300917C0310917D03209175
:101060007E0330917F0340915F0350916003609154
:101070005D0370915E0380916103909162030E9411
:1010800091058091610390916203893791059CF0ED
:1010900080915D0390915E03803591057CF40E9400
:1010A0008F0568EE72E080E893E00E94A10266245A
:1010B0006394712C05C0612C712C02C0612C712CC1
:1010C000C0907C03D0907D03E0907E03F0907F037E
:1010D0000091590310915A0320916A0330916B03D8
:1010E000409161035091620360915D0370915E03D2
:1010F00080915F03909160030E941D0324E6C22F3C
:1011000080E0D82F8FE493EC0197F1F700C0000046
:101110000E94CD030A9709F077C00E940F0289E070
:1011200093E00E9400026114710429F484E193E0C9
:101130000E94000204C08BE193E00E94000280EC58
:1011400090E00E94580150924D0340924C0382E27D
:1011500093E00E94000284E193E00E94000280E993
:1011600090E00E94580130924D0320924C038BE294
:1011700093E00E940002A114B10429F484E193E0F9
:101180000E94000204C080E093E00E94000280ED13
:1011900090E00E94580180E390E090934D0380938B
:1011A0004C0384E393E00E9400028114910429F42B
:1011B00084E193E00E94000204C08BE193E00E946E
:1011C00000029FEB27E289E0915020408040E1F748
:1011D00000C00000E0905903F0905A0300917C0396
:1011E00010917D0320917E0330917F0340915F0336
:1011F0005091600360915D0370915E038091610383
:10120000909162030E9491050E94CD030B97A1F576
:101210000E940F0289EB92E00E94000263E070E0FE
:1012200080916A0390916B030E94180285E20E94EC
:1012300099019FEB27E289E0915020408040E1F73F
:1012400000C00000E0905903F0905A0300917C0325
:1012500010917D0320917E0330917F0340915F03C5
:101260005091600360915D0370915E038091610312
:10127000909162030E9491050E94CD030C9709F49E
:101280008CCD219709F03ECF88CD0E940F028FE3CD
:1012900093E00E94000280EC90E00E94580180E1FF
:1012A00090E090934D0380934C030E940C04909324
:1012B0006803809367038A30910544F49093580340
:1012C0008093570361E070E00E9418020E940C04B2
:1012D00090936803809367038A3091051CF52091F1
:1012E000570330915803A901440F551F220F331F94
:1012F000220F331F220F331F240F351F280F391FD2
:10130000309358032093570361E070E00E94180265
:101310002FE38DE093E0215080409040E1F700C042
:10132000000008958C30910519F40E944509089534
:101330000F9711F40E94A206089589B382958695AD
:10134000877091E08927817090E008950E949D093F
:10135000892BE1F3DD9A0000DE980000CD99FECFE5
:1013600028E180E090E0DC01DE9A0000880F991F00
:10137000AA1FBB1FDE980000CD9B03C00196A11DD4
:10138000B11D215089F7689415F8B695A7959795E2
:1013900087951694D1F7DE9A0000DE980000BC0114
:1013A000CD0180580895803449F0803819F080329A
:1013B00061F408C081E08093690307C083E08093F3
:1013C000690303C082E080936903DE980E94A60946
:1013D0000895D69AD598DD9A0E94D3090895CF92A0
:1013E000DF92EF92FF92CF93DF93D82F882371F093
:1013F000C0E0C12CD12C76010E94A609C60ED71ED2
:10140000E81EF91ECF5FCD13F7CF03C0C12CD12C3E
:1014100076012D2F30E040E050E0C701B6010E9478
:101420008B0CCA01B901DF91CF91FF90EF90DF9053
:10143000CF9008950E94EF090E94530B60936C03B4
:1014400070936D0380936E0390936F030895609380
:101450008A0370938B0380938C0390938D0308957C
:1014600060916C0370916D0380916E0390916F0396
:1014700008955058BB27AA270E94510A0C94CB0B01
:101480000E94BD0B38F00E94C40B20F039F49F3F3E
:1014900019F426F40C94BA0B0EF4E095E7FB0C94C7
:1014A000B40BE92F0E94DC0B58F3BA1762077307DD
:1014B0008407950720F079F4A6F50C94FE0B0EF442
:1014C000E0950B2EBA2FA02D0B01B90190010C0154
:1014D000CA01A0011124FF27591B99F0593F50F46C
:1014E000503E68F11A16F040A22F232F342F4427C4
:1014F000585FF3CF469537952795A795F0405395BC
:10150000C9F77EF41F16BA0B620B730B840BBAF08B
:101510009150A1F0FF0FBB1F661F771F881FC2F7F6
:101520000EC0BA0F621F731F841F48F4879577950A
:101530006795B795F7959E3F08F0B0CF9395880FC4
:1015400008F09927EE0F9795879508950E94900BC4
:1015500008F481E008950E94BF0A0C94CB0B0E940E
:10156000C40B58F00E94BD0B40F029F45F3F29F0F6
:101570000C94B40B51110C94FF0B0C94BA0B0E94F9
:10158000DC0B68F39923B1F3552391F3951B550BAD
:10159000BB27AA2762177307840738F09F5F5F4F46
:1015A000220F331F441FAA1FA9F335D00E2E3AF085
:1015B000E0E832D091505040E695001CCAF72BD09D
:1015C000FE2F29D0660F771F881FBB1F26173707EE
:1015D0004807AB07B0E809F0BB0B802DBF01FF2720
:1015E00093585F4F3AF09E3F510578F00C94B40B3E
:1015F0000C94FF0B5F3FE4F3983ED4F38695779508
:101600006795B795F7959F5FC9F7880F911D9695D8
:10161000879597F90895E1E0660F771F881FBB1F34
:10162000621773078407BA0720F0621B730B840BE1
:10163000BA0BEE1F88F7E09508950E94240B68947A
:10164000B1110C94FF0B08950E94E40B88F09F5792
:1016500098F0B92F9927B751B0F0E1F0660F771FD6
:10166000881F991F1AF0BA95C9F714C0B13091F0CC
:101670000E94FE0BB1E008950C94FE0B672F782FAB
:101680008827B85F39F0B93FCCF386957795679591
:10169000B395D9F73EF490958095709561957F4FFD
:1016A0008F4F9F4F0895E89409C097FB3EF49095A3
:1016B0008095709561957F4F8F4F9F4F9923A9F02B
:1016C000F92F96E9BB279395F695879577956795BA
:1016D000B795F111F8CFFAF4BB0F11F460FF1BC0FE
:1016E0006F5F7F4F8F4F9F4F16C0882311F096E991
:1016F00011C0772321F09EE8872F762F05C066233F
:1017000071F096E8862F70E060E02AF09A95660FF7
:10171000771F881FDAF7880F9695879597F90895B0
:10172000990F0008550FAA0BE0E8FEEF16161706F2
:10173000E807F907C0F012161306E407F50798F05A
:10174000621B730B840B950B39F40A2661F0232B73
:10175000242B252B21F408950A2609F4A140A695EF
:101760008FEF811D811D089597F99F6780E870E0D4
:1017700060E008959FEF80EC089500240A94161607
:10178000170618060906089500240A94121613066F
:10179000140605060895092E0394000C11F48823FD
:1017A00052F0BB0F40F4BF2B11F460FF04C06F5F19
:1017B0007F4F8F4F9F4F089557FD9058440F551FEF
:1017C00059F05F3F71F04795880F97FB991F61F0C3
:1017D0009F3F79F087950895121613061406551F3A
:1017E000F2CF4695F1DF08C0161617061806991FA6
:1017F000F1CF86957105610508940895E894BB279B
:1018000066277727CB0197F908950E94900B08F47B
:101810008FEF08950E941D0C0C94CB0B0E94BD0B02
:1018200038F00E94C40B20F0952311F00C94B40BF7
:101830000C94BA0B11240C94FF0B0E94DC0B70F378
:10184000959FC1F3950F50E0551F629FF001729F65
:10185000BB27F00DB11D639FAA27F00DB11DAA1F74
:10186000649F6627B00DA11D661F829F2227B00DC1
:10187000A11D621F739FB00DA11D621F839FA00D4C
:10188000611D221F749F3327A00D611D231F849F9C
:10189000600D211D822F762F6A2F11249F575040F3
:1018A0009AF0F1F088234AF0EE0FFF1FBB1F661F6E
:1018B000771F881F91505040A9F79E3F510580F037
:1018C0000C94B40B0C94FF0B5F3FE4F3983ED4F3FD
:1018D000869577956795B795F795E7959F5FC1F7DB
:1018E000FE2B880F911D9695879597F9089597FB84
:1018F000072E16F4009407D077FD09D00E94AD0C96
:1019000007FC05D03EF4909581959F4F0895709502
:1019100061957F4F0895A1E21A2EAA1BBB1BFD0102
:101920000DC0AA1FBB1FEE1FFF1FA217B307E407BE
:10193000F50720F0A21BB30BE40BF50B661F771F16
:10194000881F991F1A9469F76095709580959095F6
:101950009B01AC01BD01CF010895AA1BBB1B51E146
:1019600007C0AA1FBB1FA617B70710F0A61BB70B0F
:10197000881F991F5A95A9F780959095BC01CD01B4
:101980000895EF920F931F93CF93DF93E80147FDE4
:1019900002C034E001C034E1E42F440FFF0BF7FF35
:1019A00003C0F195E195F109E32E022F2E2FAE0130
:1019B0000E94060DCE01DF91CF911F910F91EF9004
:1019C0000895BB274A3031F4992322F4BDE2909563
:1019D00081959F4F0C94ED0CBB27FB015527AA273F
:1019E000880F991FAA1FA41710F0A41B83955051AC
:1019F000B9F7A05DAA3308F0A95DA193009779F724
:101A0000B111B1931192CB010C946C0F4F925F9274
:101A10006F927F929F92AF92BF92CF92DF92EF929E
:101A2000FF920F931F93CF93DF93CDB7DEB7299724
:101A30000FB6F894DEBF0FBECDBF6A01122FB02ED5
:101A40002BE3201720F0FF24F394F00E02C0BCE338
:101A5000FB2E0F2D27E0AE014F5F5F4F0E94940ECB
:101A6000AC018981982F9970913031F0E1FC06C06A
:101A7000E0FE06C090E205C09DE203C09BE201C00B
:101A800090E0EE2DE07183FF3CC0911102C083E035
:101A900001C084E0811718F4212F281B01C020E029
:101AA000E1110BC0F601822F30E2882319F0319347
:101AB0008150FBCFC20ED11C20E0992329F0D60122
:101AC0009C93F60131966F01C6010396E2FE0AC0AF
:101AD0003EE4D6013C9341E411964C931197129643
:101AE0003C9306C03EE6F601308341E641833283F3
:101AF000FC01322F40E2332309F442C041933150BC
:101B0000FACF82FF44C0911102C083E001C084E09B
:101B1000811718F4212F281B01C020E0E1110BC010
:101B2000F601822F30E2882319F031938150FBCFE8
:101B3000C20ED11C20E0992329F0D6019C93F60116
:101B400031966F01C6010396E2FE0BC039E4D6015F
:101B50003C933EE411963C93119736E412963C93E5
:101B600007C039E6F60130833EE6318336E632833C
:101B7000FC01322F40E2332319F041933150FBCF67
:101B8000FC01E20FF11D10828EEF9FEFB7C0F1E074
:101B9000911101C0F0E06F2F70E01416150624F4C7
:101BA0009A012F5F3F4F02C021E030E0260F371F20
:101BB000BB2029F06B2D70E06F5F7F4F02C060E0AB
:101BC00070E0260F371F612F70E0261737071CF4CF
:101BD000121B212F01C020E03E2D387159F4D6018F
:101BE000322F60E2332319F06D933150FBCFC20ED8
:101BF000D11C20E0FF2331F0D6019C93B6016F5F2A
:101C00007F4F6B01E1110BC0F601922F30E3992356
:101C100019F031939150FBCFC20ED11C20E09F2DC3
:101C2000940F3A81782F7071A72E84FF03C031334F
:101C300009F49150191624F4993018F098E001C075
:101C400091E0E42F852F57FF02C0E0E080E06E2F87
:101C5000782FE0E0F0E0AEE29A2E3A01691A7108BE
:101C60002A01461A570A0B2D10E01195019511090A
:101C70006F3F8FEF780729F4D6019C92C601019639
:101C80006C014617570784F0661677066CF47F01DF
:101C9000E40CF51CA1E0B0E0AC0FBD1FEA0EFB1E8A
:101CA000D7011196BC9002C090E3B92E6150710922
:101CB0003196C60101967C016017710724F0D601A8
:101CC000BC926C01D5CF6417750741F4363320F40C
:101CD000353321F4A11002C081E3B82EF601B082A1
:101CE000F701822F90E2882319F091938150FBCF66
:101CF000F701E20FF11D108280E090E029960FB607
:101D0000F894DEBF0FBECDBFDF91CF911F910F9131
:101D1000FF90EF90DF90CF90BF90AF909F907F901B
:101D20006F905F904F900895283008F027E0332798
:101D3000DA01990F311D87FD9160009661057105EB
:101D400039F432602E5F3D9330E32A95E1F7089530
:101D50009F3F30F080387105610509F03C5F3C5FC2
:101D60003D93913008F08068911DDF93CF931F93CE
:101D70000F93FF92EF92192F987F9695E92F9695E2
:101D80009695E90FFF27E255FF4F99273327EE2459
:101D9000FF24A701E70105900894079428F4360F63
:101DA000E71EF81E491F511D660F771F881F991FD8
:101DB0000694A1F70590079428F4E70EF81E491F32
:101DC000561FC11D770F881F991F661F0694A1F724
:101DD0000590079428F4F80E491F561FC71FD11D00
:101DE000880F991F661F771F0694A1F70590079427
:101DF00020F4490F561FC71FD81F990F661F771F62
:101E0000881F0694A9F784911095177041F0D69514
:101E1000C79557954795F794E7941A95C1F7E4E568
:101E2000F0E0689415901591359165919591059024
:101E30007FE27395E118F10A430B560BC90BD009E9
:101E4000C0F7E10CF11E431F561FC91FD01D7EF4C1
:101E5000703311F48A95E6CFE894015030F0080F02
:101E60000AF40027021708F4202F2395022F7A3353
:101E700028F079E37D932A95E9F710C07D932A95A0
:101E800089F6069497956795379517951794E118F5
:101E9000F10A430B560BC90BD00998F023957E919C
:101EA00073957A3308F070E37C932013B8F77E9132
:101EB00070617D9330F0839571E37D9370E32A9593
:101EC000E1F71124EF90FF900F911F91CF91DF91D7
:101ED000992787FD90950895DC01FC01672F71918A
:101EE0007723E1F7329704C07C916D937083629100
:0C1EF000AE17BF07C8F30895F894FFCFA9
:101EFC000D000C000B000A000F0009000600030087
:101F0C0000000800050002000E000700040001009C
:101F1C002052454D4F5445204845414C54482020B3
:101F2C0020204D4F4E49544F52494E4720202020DF
:101F3C00202020202053595354454D202020202070
:101F4C0047524F55502D31382050524F4A4543542B
:101F5C000041540D0041542B434D47463D310D007B
:101F6C0041542B434D47533D220041542B4854546C
:101F7C0050494E49540D0041542B53415042523D4F
:101F8C00332C312C2241504E222C227070776170F0
:101F9C00220D0041542B53415042523D312C310DF6
:101FAC000041542B485454505445524D0041542B2D
:101FBC0048545450504152413D2255524C222C22EF
:101FCC00687474703A2F2F73616C6C69686F7961E7
:101FDC006D752E636F6D2F73656E642E7068703F18
:101FEC0068656172743D002670725F6469613D00C2
:101FFC002670725F7379733D002673616C696E6530
:10200C003D0026726573703D002674656D703D0051
:10201C0041542B48545450504152413D2243494461
:10202C00222C310D0041542B4854545041435449F7
:10203C004F4E3D300D00456E7465722054656C201A
:10204C004E6F3A20003000507265733A20006D6D6F
:10205C0048670050756C73653A200054656D703A92
:10206C00200046005265737069726174696F6E3A34
:10207C0020004169722050756D70696E672E2E00BC
:10208C004D6561737572696E6720507265737375F7
:10209C007265204661696C65642E2E004D65617316
:1020AC007572696E6720426C6F6F64205072657335
:1020BC00737572652E2E004D6561737572696E674E
:1020CC002054656D707261747572652E2E004430EB
:1020DC0030313A20426F64792054656D70726174AE
:1020EC007572652069732041626E6F726D616C0050
:1020FC004D6561737572696E672052657370697294
:10210C006174696F6E20526174652E2E00443030FC
:10211C00313A205265737069726174696F6E207206
:10212C006174652069732061626E6F726D616C0001
:10213C004D6561737572696E672053616C696E656C
:10214C00204C6576656C2E2E0053616C696E652093
:10215C004C564C3A2000443030313A2053616C6973
:10216C006E65204C6576656C206C6F77657220749B
:10217C0068616E2031302500443030313A20426C99
:10218C006F6F64205072657373757265206973206C
:10219C0041626E6F726D616C005072657373757213
:1021AC00653A20004E6F726D616C0041626E6F7209
:1021BC006D0050756C73653A20200054656D703A53
:1021CC002020200052657370697261743A200045BA
:0C21DC006E746572204167653A200000B7
:00000001FF
